{
  "_format": "hh-sol-artifact-1",
  "contractName": "Nip20Market",
  "sourceName": "contracts/Nip20Market.sol",
  "abi": [
    {
      "inputs": [
        {
          "internalType": "address",
          "name": "initialOwner",
          "type": "address"
        }
      ],
      "stateMutability": "nonpayable",
      "type": "constructor"
    },
    {
      "inputs": [
        {
          "internalType": "address",
          "name": "owner",
          "type": "address"
        }
      ],
      "name": "OwnableInvalidOwner",
      "type": "error"
    },
    {
      "inputs": [
        {
          "internalType": "address",
          "name": "account",
          "type": "address"
        }
      ],
      "name": "OwnableUnauthorizedAccount",
      "type": "error"
    },
    {
      "anonymous": false,
      "inputs": [
        {
          "indexed": false,
          "internalType": "address",
          "name": "from",
          "type": "address"
        },
        {
          "indexed": false,
          "internalType": "address",
          "name": "to",
          "type": "address"
        },
        {
          "indexed": false,
          "internalType": "bytes32",
          "name": "ticker",
          "type": "bytes32"
        },
        {
          "indexed": false,
          "internalType": "bytes32",
          "name": "txhash",
          "type": "bytes32"
        }
      ],
      "name": "NIP20TokenEvent_transfer",
      "type": "event"
    },
    {
      "anonymous": false,
      "inputs": [
        {
          "indexed": true,
          "internalType": "uint256",
          "name": "orderId",
          "type": "uint256"
        },
        {
          "indexed": true,
          "internalType": "address",
          "name": "seller",
          "type": "address"
        },
        {
          "indexed": false,
          "internalType": "uint256",
          "name": "price",
          "type": "uint256"
        },
        {
          "indexed": false,
          "internalType": "bytes32",
          "name": "ticker",
          "type": "bytes32"
        },
        {
          "indexed": false,
          "internalType": "bytes32",
          "name": "txhash",
          "type": "bytes32"
        }
      ],
      "name": "OrderCreated",
      "type": "event"
    },
    {
      "anonymous": false,
      "inputs": [
        {
          "indexed": true,
          "internalType": "uint256",
          "name": "orderId",
          "type": "uint256"
        },
        {
          "indexed": true,
          "internalType": "address",
          "name": "buyer",
          "type": "address"
        }
      ],
      "name": "OrderExecuted",
      "type": "event"
    },
    {
      "anonymous": false,
      "inputs": [
        {
          "indexed": true,
          "internalType": "uint256",
          "name": "orderId",
          "type": "uint256"
        }
      ],
      "name": "OrderRemoved",
      "type": "event"
    },
    {
      "anonymous": false,
      "inputs": [
        {
          "indexed": true,
          "internalType": "address",
          "name": "previousOwner",
          "type": "address"
        },
        {
          "indexed": true,
          "internalType": "address",
          "name": "newOwner",
          "type": "address"
        }
      ],
      "name": "OwnershipTransferred",
      "type": "event"
    },
    {
      "stateMutability": "nonpayable",
      "type": "fallback"
    },
    {
      "inputs": [
        {
          "internalType": "address",
          "name": "verifier",
          "type": "address"
        }
      ],
      "name": "addTrustedVerifier",
      "outputs": [],
      "stateMutability": "nonpayable",
      "type": "function"
    },
    {
      "inputs": [
        {
          "internalType": "uint256",
          "name": "amount",
          "type": "uint256"
        }
      ],
      "name": "collectFee",
      "outputs": [],
      "stateMutability": "nonpayable",
      "type": "function"
    },
    {
      "inputs": [
        {
          "internalType": "uint256",
          "name": "price",
          "type": "uint256"
        },
        {
          "internalType": "bytes32",
          "name": "ticker",
          "type": "bytes32"
        },
        {
          "internalType": "bytes32",
          "name": "id",
          "type": "bytes32"
        },
        {
          "internalType": "bytes32",
          "name": "txhash",
          "type": "bytes32"
        },
        {
          "internalType": "bytes",
          "name": "signature",
          "type": "bytes"
        }
      ],
      "name": "createOrder",
      "outputs": [],
      "stateMutability": "nonpayable",
      "type": "function"
    },
    {
      "inputs": [
        {
          "internalType": "uint256",
          "name": "orderId",
          "type": "uint256"
        }
      ],
      "name": "executeOrder",
      "outputs": [],
      "stateMutability": "payable",
      "type": "function"
    },
    {
      "inputs": [
        {
          "internalType": "bytes32",
          "name": "",
          "type": "bytes32"
        }
      ],
      "name": "items",
      "outputs": [
        {
          "internalType": "bool",
          "name": "",
          "type": "bool"
        }
      ],
      "stateMutability": "view",
      "type": "function"
    },
    {
      "inputs": [],
      "name": "nextOrderId",
      "outputs": [
        {
          "internalType": "uint256",
          "name": "",
          "type": "uint256"
        }
      ],
      "stateMutability": "view",
      "type": "function"
    },
    {
      "inputs": [
        {
          "internalType": "uint256",
          "name": "",
          "type": "uint256"
        }
      ],
      "name": "orders",
      "outputs": [
        {
          "internalType": "address",
          "name": "seller",
          "type": "address"
        },
        {
          "internalType": "uint256",
          "name": "price",
          "type": "uint256"
        },
        {
          "internalType": "bytes32",
          "name": "ticker",
          "type": "bytes32"
        },
        {
          "internalType": "bytes32",
          "name": "inscription",
          "type": "bytes32"
        },
        {
          "internalType": "bytes32",
          "name": "txhash",
          "type": "bytes32"
        },
        {
          "internalType": "bool",
          "name": "isActive",
          "type": "bool"
        }
      ],
      "stateMutability": "view",
      "type": "function"
    },
    {
      "inputs": [],
      "name": "owner",
      "outputs": [
        {
          "internalType": "address",
          "name": "",
          "type": "address"
        }
      ],
      "stateMutability": "view",
      "type": "function"
    },
    {
      "inputs": [
        {
          "internalType": "uint256",
          "name": "id",
          "type": "uint256"
        }
      ],
      "name": "removeOrder",
      "outputs": [],
      "stateMutability": "nonpayable",
      "type": "function"
    },
    {
      "inputs": [
        {
          "internalType": "address",
          "name": "verifier",
          "type": "address"
        }
      ],
      "name": "removeTrustedVerifier",
      "outputs": [],
      "stateMutability": "nonpayable",
      "type": "function"
    },
    {
      "inputs": [],
      "name": "renounceOwnership",
      "outputs": [],
      "stateMutability": "nonpayable",
      "type": "function"
    },
    {
      "inputs": [
        {
          "internalType": "uint256",
          "name": "fee",
          "type": "uint256"
        }
      ],
      "name": "setMarketFee",
      "outputs": [],
      "stateMutability": "nonpayable",
      "type": "function"
    },
    {
      "inputs": [
        {
          "internalType": "address",
          "name": "newOwner",
          "type": "address"
        }
      ],
      "name": "transferOwnership",
      "outputs": [],
      "stateMutability": "nonpayable",
      "type": "function"
    },
    {
      "inputs": [
        {
          "internalType": "address",
          "name": "",
          "type": "address"
        }
      ],
      "name": "trustedVerifiers",
      "outputs": [
        {
          "internalType": "bool",
          "name": "",
          "type": "bool"
        }
      ],
      "stateMutability": "view",
      "type": "function"
    },
    {
      "stateMutability": "payable",
      "type": "receive"
    }
  ],
  "bytecode": "0x60806040523480156200001157600080fd5b5060405162001c8038038062001c808339818101604052810190620000379190620001f4565b80600073ffffffffffffffffffffffffffffffffffffffff168173ffffffffffffffffffffffffffffffffffffffff1603620000ad5760006040517f1e4fbdf7000000000000000000000000000000000000000000000000000000008152600401620000a4919062000237565b60405180910390fd5b620000be81620000c660201b60201c565b505062000254565b60008060009054906101000a900473ffffffffffffffffffffffffffffffffffffffff169050816000806101000a81548173ffffffffffffffffffffffffffffffffffffffff021916908373ffffffffffffffffffffffffffffffffffffffff1602179055508173ffffffffffffffffffffffffffffffffffffffff168173ffffffffffffffffffffffffffffffffffffffff167f8be0079c531659141344cd1fd0a4f28419497f9722a3daafe3b4186f6b6457e060405160405180910390a35050565b600080fd5b600073ffffffffffffffffffffffffffffffffffffffff82169050919050565b6000620001bc826200018f565b9050919050565b620001ce81620001af565b8114620001da57600080fd5b50565b600081519050620001ee81620001c3565b92915050565b6000602082840312156200020d576200020c6200018a565b5b60006200021d84828501620001dd565b91505092915050565b6200023181620001af565b82525050565b60006020820190506200024e600083018462000226565b92915050565b611a1c80620002646000396000f3fe6080604052600436106100e15760003560e01c80638da5cb5b1161007f578063a85c38ef11610059578063a85c38ef1461029d578063a969ff0a146102df578063ea5c68f414610308578063f2fde38b14610331576100e8565b80638da5cb5b1461022d57806394f61134146102585780639645337a14610274576100e8565b806348f343f3116100bb57806348f343f31461018757806350a053cd146101c4578063715018a6146101ed578063801d2cf114610204576100e8565b806326319833146100f657806326b825d2146101335780632a58b3301461015c576100e8565b366100e857005b3480156100f457600080fd5b005b34801561010257600080fd5b5061011d60048036038101906101189190610f47565b61035a565b60405161012a9190610f8f565b60405180910390f35b34801561013f57600080fd5b5061015a60048036038101906101559190610fe0565b61037a565b005b34801561016857600080fd5b506101716103d0565b60405161017e919061101c565b60405180910390f35b34801561019357600080fd5b506101ae60048036038101906101a9919061106d565b6103d6565b6040516101bb9190610f8f565b60405180910390f35b3480156101d057600080fd5b506101eb60048036038101906101e69190610f47565b6103f6565b005b3480156101f957600080fd5b50610202610459565b005b34801561021057600080fd5b5061022b60048036038101906102269190610f47565b61046d565b005b34801561023957600080fd5b506102426104d0565b60405161024f91906110a9565b60405180910390f35b610272600480360381019061026d9190610fe0565b6104f9565b005b34801561028057600080fd5b5061029b60048036038101906102969190610fe0565b6106e4565b005b3480156102a957600080fd5b506102c460048036038101906102bf9190610fe0565b6108b3565b6040516102d6969594939291906110d3565b60405180910390f35b3480156102eb57600080fd5b5061030660048036038101906103019190610fe0565b61091c565b005b34801561031457600080fd5b5061032f600480360381019061032a919061127a565b61096e565b005b34801561033d57600080fd5b5061035860048036038101906103539190610f47565b610c1f565b005b60056020528060005260406000206000915054906101000a900460ff1681565b610382610ca5565b6103e881106103c6576040517f08c379a00000000000000000000000000000000000000000000000000000000081526004016103bd9061136e565b60405180910390fd5b8060048190555050565b60035481565b60026020528060005260406000206000915054906101000a900460ff1681565b6103fe610ca5565b6001600560008373ffffffffffffffffffffffffffffffffffffffff1673ffffffffffffffffffffffffffffffffffffffff16815260200190815260200160002060006101000a81548160ff02191690831515021790555050565b610461610ca5565b61046b6000610d2c565b565b610475610ca5565b6000600560008373ffffffffffffffffffffffffffffffffffffffff1673ffffffffffffffffffffffffffffffffffffffff16815260200190815260200160002060006101000a81548160ff02191690831515021790555050565b60008060009054906101000a900473ffffffffffffffffffffffffffffffffffffffff16905090565b60006001600083815260200190815260200160002090508060050160009054906101000a900460ff16610561576040517f08c379a0000000000000000000000000000000000000000000000000000000008152600401610558906113da565b60405180910390fd5b80600101543410156105a8576040517f08c379a000000000000000000000000000000000000000000000000000000000815260040161059f90611446565b60405180910390fd5b8060000160009054906101000a900473ffffffffffffffffffffffffffffffffffffffff1673ffffffffffffffffffffffffffffffffffffffff166108fc6103e86004546103e86105f99190611495565b3461060491906114c9565b61060e919061153a565b9081150290604051600060405180830381858888f19350505050158015610639573d6000803e3d6000fd5b507fa36b44ad7c15287126c352c0c5db293004406b0e5158d6dbd3ef4b9f7b9d8ff8303383600201548460030154604051610677949392919061156b565b60405180910390a160008160050160006101000a81548160ff0219169083151502179055503373ffffffffffffffffffffffffffffffffffffffff16827f7dcea57e3cdcea187cf2d57047e2b9260a274caa69cb5fe9525d123ef6c12a1760405160405180910390a35050565b6001600082815260200190815260200160002060050160009054906101000a900460ff16610747576040517f08c379a000000000000000000000000000000000000000000000000000000000815260040161073e906115fc565b60405180910390fd5b3373ffffffffffffffffffffffffffffffffffffffff166001600083815260200190815260200160002060000160009054906101000a900473ffffffffffffffffffffffffffffffffffffffff1673ffffffffffffffffffffffffffffffffffffffff16146107eb576040517f08c379a00000000000000000000000000000000000000000000000000000000081526004016107e29061168e565b60405180910390fd5b60006001600083815260200190815260200160002060050160006101000a81548160ff021916908315150217905550807f2114a52d297f01ee99b38a96fbd79c650bf37e10c29e0967c6621187fbe2532260405160405180910390a27fa36b44ad7c15287126c352c0c5db293004406b0e5158d6dbd3ef4b9f7b9d8ff83033600160008581526020019081526020016000206002015460016000868152602001908152602001600020600301546040516108a8949392919061156b565b60405180910390a150565b60016020528060005260406000206000915090508060000160009054906101000a900473ffffffffffffffffffffffffffffffffffffffff16908060010154908060020154908060030154908060040154908060050160009054906101000a900460ff16905086565b610924610ca5565b3373ffffffffffffffffffffffffffffffffffffffff166108fc829081150290604051600060405180830381858888f1935050505015801561096a573d6000803e3d6000fd5b5050565b6002600083815260200190815260200160002060009054906101000a900460ff16156109cf576040517f08c379a00000000000000000000000000000000000000000000000000000000081526004016109c690611720565b60405180910390fd5b6040518060c001604052803373ffffffffffffffffffffffffffffffffffffffff1681526020018681526020018581526020018481526020018381526020016001151581525060016000600354815260200190815260200160002060008201518160000160006101000a81548173ffffffffffffffffffffffffffffffffffffffff021916908373ffffffffffffffffffffffffffffffffffffffff1602179055506020820151816001015560408201518160020155606082015181600301556080820151816004015560a08201518160050160006101000a81548160ff02191690831515021790555090505060016002600084815260200190815260200160002060006101000a81548160ff02191690831515021790555060056000610b243330868989604051602001610b089594939291906117a9565b6040516020818303038152906040528051906020012084610df0565b73ffffffffffffffffffffffffffffffffffffffff1673ffffffffffffffffffffffffffffffffffffffff16815260200190815260200160002060009054906101000a900460ff16610bab576040517f08c379a0000000000000000000000000000000000000000000000000000000008152600401610ba29061187a565b60405180910390fd5b3373ffffffffffffffffffffffffffffffffffffffff166003547febddcd5f97aad87607301c35a06dd8cc3e3a0ff6b525134bbb452ba69c5e753b878787604051610bf89392919061189a565b60405180910390a360036000815480929190610c13906118d1565b91905055505050505050565b610c27610ca5565b600073ffffffffffffffffffffffffffffffffffffffff168173ffffffffffffffffffffffffffffffffffffffff1603610c995760006040517f1e4fbdf7000000000000000000000000000000000000000000000000000000008152600401610c9091906110a9565b60405180910390fd5b610ca281610d2c565b50565b610cad610e65565b73ffffffffffffffffffffffffffffffffffffffff16610ccb6104d0565b73ffffffffffffffffffffffffffffffffffffffff1614610d2a57610cee610e65565b6040517f118cdaa7000000000000000000000000000000000000000000000000000000008152600401610d2191906110a9565b60405180910390fd5b565b60008060009054906101000a900473ffffffffffffffffffffffffffffffffffffffff169050816000806101000a81548173ffffffffffffffffffffffffffffffffffffffff021916908373ffffffffffffffffffffffffffffffffffffffff1602179055508173ffffffffffffffffffffffffffffffffffffffff168173ffffffffffffffffffffffffffffffffffffffff167f8be0079c531659141344cd1fd0a4f28419497f9722a3daafe3b4186f6b6457e060405160405180910390a35050565b600080600080610dff85610e6d565b80935081945082955050505060018682858560405160008152602001604052604051610e2e9493929190611935565b6020604051602081039080840390855afa158015610e50573d6000803e3d6000fd5b50505060206040510351935050505092915050565b600033905090565b60008060006041845114610eb6576040517f08c379a0000000000000000000000000000000000000000000000000000000008152600401610ead906119c6565b60405180910390fd5b6020840151925060408401519150606084015160001a90509193909250565b6000604051905090565b600080fd5b600080fd5b600073ffffffffffffffffffffffffffffffffffffffff82169050919050565b6000610f1482610ee9565b9050919050565b610f2481610f09565b8114610f2f57600080fd5b50565b600081359050610f4181610f1b565b92915050565b600060208284031215610f5d57610f5c610edf565b5b6000610f6b84828501610f32565b91505092915050565b60008115159050919050565b610f8981610f74565b82525050565b6000602082019050610fa46000830184610f80565b92915050565b6000819050919050565b610fbd81610faa565b8114610fc857600080fd5b50565b600081359050610fda81610fb4565b92915050565b600060208284031215610ff657610ff5610edf565b5b600061100484828501610fcb565b91505092915050565b61101681610faa565b82525050565b6000602082019050611031600083018461100d565b92915050565b6000819050919050565b61104a81611037565b811461105557600080fd5b50565b60008135905061106781611041565b92915050565b60006020828403121561108357611082610edf565b5b600061109184828501611058565b91505092915050565b6110a381610f09565b82525050565b60006020820190506110be600083018461109a565b92915050565b6110cd81611037565b82525050565b600060c0820190506110e8600083018961109a565b6110f5602083018861100d565b61110260408301876110c4565b61110f60608301866110c4565b61111c60808301856110c4565b61112960a0830184610f80565b979650505050505050565b600080fd5b600080fd5b6000601f19601f8301169050919050565b7f4e487b7100000000000000000000000000000000000000000000000000000000600052604160045260246000fd5b6111878261113e565b810181811067ffffffffffffffff821117156111a6576111a561114f565b5b80604052505050565b60006111b9610ed5565b90506111c5828261117e565b919050565b600067ffffffffffffffff8211156111e5576111e461114f565b5b6111ee8261113e565b9050602081019050919050565b82818337600083830152505050565b600061121d611218846111ca565b6111af565b90508281526020810184848401111561123957611238611139565b5b6112448482856111fb565b509392505050565b600082601f83011261126157611260611134565b5b813561127184826020860161120a565b91505092915050565b600080600080600060a0868803121561129657611295610edf565b5b60006112a488828901610fcb565b95505060206112b588828901611058565b94505060406112c688828901611058565b93505060606112d788828901611058565b925050608086013567ffffffffffffffff8111156112f8576112f7610ee4565b5b6113048882890161124c565b9150509295509295909350565b600082825260208201905092915050565b7f6665652063616e6e6f7420657863656564203130303000000000000000000000600082015250565b6000611358601683611311565b915061136382611322565b602082019050919050565b600060208201905081810360008301526113878161134b565b9050919050565b7f4f72646572206973206e6f742061637469766500000000000000000000000000600082015250565b60006113c4601383611311565b91506113cf8261138e565b602082019050919050565b600060208201905081810360008301526113f3816113b7565b9050919050565b7f496e73756666696369656e74207061796d656e74000000000000000000000000600082015250565b6000611430601483611311565b915061143b826113fa565b602082019050919050565b6000602082019050818103600083015261145f81611423565b9050919050565b7f4e487b7100000000000000000000000000000000000000000000000000000000600052601160045260246000fd5b60006114a082610faa565b91506114ab83610faa565b92508282039050818111156114c3576114c2611466565b5b92915050565b60006114d482610faa565b91506114df83610faa565b92508282026114ed81610faa565b9150828204841483151761150457611503611466565b5b5092915050565b7f4e487b7100000000000000000000000000000000000000000000000000000000600052601260045260246000fd5b600061154582610faa565b915061155083610faa565b9250826115605761155f61150b565b5b828204905092915050565b6000608082019050611580600083018761109a565b61158d602083018661109a565b61159a60408301856110c4565b6115a760608301846110c4565b95945050505050565b7f6e6f20616374697665206f72646572206f662074686973206964000000000000600082015250565b60006115e6601a83611311565b91506115f1826115b0565b602082019050919050565b60006020820190508181036000830152611615816115d9565b9050919050565b7f6f6e6c79207468652073656e6465722063616e2063616e63656c20746865206f60008201527f7264657200000000000000000000000000000000000000000000000000000000602082015250565b6000611678602483611311565b91506116838261161c565b604082019050919050565b600060208201905081810360008301526116a78161166b565b9050919050565b7f746865206974656d2068617320616c7265616479206265656e206c697374656460008201527f206265666f726500000000000000000000000000000000000000000000000000602082015250565b600061170a602783611311565b9150611715826116ae565b604082019050919050565b60006020820190508181036000830152611739816116fd565b9050919050565b60008160601b9050919050565b600061175882611740565b9050919050565b600061176a8261174d565b9050919050565b61178261177d82610f09565b61175f565b82525050565b6000819050919050565b6117a361179e82611037565b611788565b82525050565b60006117b58288611771565b6014820191506117c58287611771565b6014820191506117d58286611792565b6020820191506117e58285611792565b6020820191506117f58284611792565b6020820191508190509695505050505050565b7f5369676e6174757265206e6f742066726f6d206120747275737465642076657260008201527f6966696572000000000000000000000000000000000000000000000000000000602082015250565b6000611864602583611311565b915061186f82611808565b604082019050919050565b6000602082019050818103600083015261189381611857565b9050919050565b60006060820190506118af600083018661100d565b6118bc60208301856110c4565b6118c960408301846110c4565b949350505050565b60006118dc82610faa565b91507fffffffffffffffffffffffffffffffffffffffffffffffffffffffffffffffff820361190e5761190d611466565b5b600182019050919050565b600060ff82169050919050565b61192f81611919565b82525050565b600060808201905061194a60008301876110c4565b6119576020830186611926565b61196460408301856110c4565b61197160608301846110c4565b95945050505050565b7f496e76616c6964207369676e6174757265206c656e6774680000000000000000600082015250565b60006119b0601883611311565b91506119bb8261197a565b602082019050919050565b600060208201905081810360008301526119df816119a3565b905091905056fea26469706673582212205a2a7773f75f686248e15435dbf7eedc8215bfede628eb2c92f22753f0f3670164736f6c63430008140033",
  "linkReferences": {},
  "deployedLinkReferences": {}
}