{
  "_format": "hh-sol-artifact-1",
  "contractName": "NipMarketManager",
  "sourceName": "contracts/NIP20/NipMarketManager.sol",
  "abi": [
    {
      "anonymous": false,
      "inputs": [
        {
          "indexed": false,
          "internalType": "address",
          "name": "previousAdmin",
          "type": "address"
        },
        {
          "indexed": false,
          "internalType": "address",
          "name": "newAdmin",
          "type": "address"
        }
      ],
      "name": "AdminChanged",
      "type": "event"
    },
    {
      "anonymous": false,
      "inputs": [
        {
          "indexed": true,
          "internalType": "address",
          "name": "beacon",
          "type": "address"
        }
      ],
      "name": "BeaconUpgraded",
      "type": "event"
    },
    {
      "anonymous": false,
      "inputs": [
        {
          "indexed": false,
          "internalType": "uint8",
          "name": "version",
          "type": "uint8"
        }
      ],
      "name": "Initialized",
      "type": "event"
    },
    {
      "anonymous": false,
      "inputs": [
        {
          "indexed": true,
          "internalType": "address",
          "name": "previousOwner",
          "type": "address"
        },
        {
          "indexed": true,
          "internalType": "address",
          "name": "newOwner",
          "type": "address"
        }
      ],
      "name": "OwnershipTransferred",
      "type": "event"
    },
    {
      "anonymous": false,
      "inputs": [
        {
          "indexed": true,
          "internalType": "address",
          "name": "sender",
          "type": "address"
        },
        {
          "indexed": false,
          "internalType": "uint256",
          "name": "value",
          "type": "uint256"
        }
      ],
      "name": "Received",
      "type": "event"
    },
    {
      "anonymous": false,
      "inputs": [
        {
          "indexed": true,
          "internalType": "bytes32",
          "name": "role",
          "type": "bytes32"
        },
        {
          "indexed": true,
          "internalType": "bytes32",
          "name": "previousAdminRole",
          "type": "bytes32"
        },
        {
          "indexed": true,
          "internalType": "bytes32",
          "name": "newAdminRole",
          "type": "bytes32"
        }
      ],
      "name": "RoleAdminChanged",
      "type": "event"
    },
    {
      "anonymous": false,
      "inputs": [
        {
          "indexed": true,
          "internalType": "bytes32",
          "name": "role",
          "type": "bytes32"
        },
        {
          "indexed": true,
          "internalType": "address",
          "name": "account",
          "type": "address"
        },
        {
          "indexed": true,
          "internalType": "address",
          "name": "sender",
          "type": "address"
        }
      ],
      "name": "RoleGranted",
      "type": "event"
    },
    {
      "anonymous": false,
      "inputs": [
        {
          "indexed": true,
          "internalType": "bytes32",
          "name": "role",
          "type": "bytes32"
        },
        {
          "indexed": true,
          "internalType": "address",
          "name": "account",
          "type": "address"
        },
        {
          "indexed": true,
          "internalType": "address",
          "name": "sender",
          "type": "address"
        }
      ],
      "name": "RoleRevoked",
      "type": "event"
    },
    {
      "anonymous": false,
      "inputs": [
        {
          "indexed": true,
          "internalType": "address",
          "name": "implementation",
          "type": "address"
        }
      ],
      "name": "Upgraded",
      "type": "event"
    },
    {
      "inputs": [],
      "name": "DEFAULT_ADMIN_ROLE",
      "outputs": [
        {
          "internalType": "bytes32",
          "name": "",
          "type": "bytes32"
        }
      ],
      "stateMutability": "view",
      "type": "function"
    },
    {
      "inputs": [
        {
          "internalType": "bytes",
          "name": "",
          "type": "bytes"
        }
      ],
      "name": "_withdraw_ids",
      "outputs": [
        {
          "internalType": "bool",
          "name": "",
          "type": "bool"
        }
      ],
      "stateMutability": "view",
      "type": "function"
    },
    {
      "inputs": [
        {
          "internalType": "address",
          "name": "verifier",
          "type": "address"
        }
      ],
      "name": "addTrustedVerifier",
      "outputs": [],
      "stateMutability": "nonpayable",
      "type": "function"
    },
    {
      "inputs": [
        {
          "internalType": "uint256",
          "name": "amount",
          "type": "uint256"
        }
      ],
      "name": "checkBalance",
      "outputs": [
        {
          "internalType": "bool",
          "name": "",
          "type": "bool"
        }
      ],
      "stateMutability": "nonpayable",
      "type": "function"
    },
    {
      "inputs": [],
      "name": "getBlockTime",
      "outputs": [
        {
          "internalType": "uint256",
          "name": "",
          "type": "uint256"
        }
      ],
      "stateMutability": "view",
      "type": "function"
    },
    {
      "inputs": [
        {
          "internalType": "bytes32",
          "name": "role",
          "type": "bytes32"
        }
      ],
      "name": "getRoleAdmin",
      "outputs": [
        {
          "internalType": "bytes32",
          "name": "",
          "type": "bytes32"
        }
      ],
      "stateMutability": "view",
      "type": "function"
    },
    {
      "inputs": [
        {
          "internalType": "bytes32",
          "name": "role",
          "type": "bytes32"
        },
        {
          "internalType": "address",
          "name": "account",
          "type": "address"
        }
      ],
      "name": "grantRole",
      "outputs": [],
      "stateMutability": "nonpayable",
      "type": "function"
    },
    {
      "inputs": [
        {
          "internalType": "bytes32",
          "name": "role",
          "type": "bytes32"
        },
        {
          "internalType": "address",
          "name": "account",
          "type": "address"
        }
      ],
      "name": "hasRole",
      "outputs": [
        {
          "internalType": "bool",
          "name": "",
          "type": "bool"
        }
      ],
      "stateMutability": "view",
      "type": "function"
    },
    {
      "inputs": [],
      "name": "initialize",
      "outputs": [],
      "stateMutability": "nonpayable",
      "type": "function"
    },
    {
      "inputs": [],
      "name": "owner",
      "outputs": [
        {
          "internalType": "address",
          "name": "",
          "type": "address"
        }
      ],
      "stateMutability": "view",
      "type": "function"
    },
    {
      "inputs": [],
      "name": "proxiableUUID",
      "outputs": [
        {
          "internalType": "bytes32",
          "name": "",
          "type": "bytes32"
        }
      ],
      "stateMutability": "view",
      "type": "function"
    },
    {
      "inputs": [
        {
          "internalType": "address",
          "name": "verifier",
          "type": "address"
        }
      ],
      "name": "removeTrustedVerifier",
      "outputs": [],
      "stateMutability": "nonpayable",
      "type": "function"
    },
    {
      "inputs": [],
      "name": "renounceOwnership",
      "outputs": [],
      "stateMutability": "nonpayable",
      "type": "function"
    },
    {
      "inputs": [
        {
          "internalType": "bytes32",
          "name": "role",
          "type": "bytes32"
        },
        {
          "internalType": "address",
          "name": "account",
          "type": "address"
        }
      ],
      "name": "renounceRole",
      "outputs": [],
      "stateMutability": "nonpayable",
      "type": "function"
    },
    {
      "inputs": [
        {
          "internalType": "bytes32",
          "name": "role",
          "type": "bytes32"
        },
        {
          "internalType": "address",
          "name": "account",
          "type": "address"
        }
      ],
      "name": "revokeRole",
      "outputs": [],
      "stateMutability": "nonpayable",
      "type": "function"
    },
    {
      "inputs": [
        {
          "internalType": "address",
          "name": "market_address",
          "type": "address"
        }
      ],
      "name": "setMarketContract",
      "outputs": [],
      "stateMutability": "nonpayable",
      "type": "function"
    },
    {
      "inputs": [
        {
          "internalType": "bytes4",
          "name": "interfaceId",
          "type": "bytes4"
        }
      ],
      "name": "supportsInterface",
      "outputs": [
        {
          "internalType": "bool",
          "name": "",
          "type": "bool"
        }
      ],
      "stateMutability": "view",
      "type": "function"
    },
    {
      "inputs": [
        {
          "internalType": "address",
          "name": "newOwner",
          "type": "address"
        }
      ],
      "name": "transferOwnership",
      "outputs": [],
      "stateMutability": "nonpayable",
      "type": "function"
    },
    {
      "inputs": [
        {
          "internalType": "address",
          "name": "",
          "type": "address"
        }
      ],
      "name": "trustedVerifiers",
      "outputs": [
        {
          "internalType": "bool",
          "name": "",
          "type": "bool"
        }
      ],
      "stateMutability": "view",
      "type": "function"
    },
    {
      "inputs": [
        {
          "internalType": "address",
          "name": "newImplementation",
          "type": "address"
        }
      ],
      "name": "upgradeTo",
      "outputs": [],
      "stateMutability": "nonpayable",
      "type": "function"
    },
    {
      "inputs": [
        {
          "internalType": "address",
          "name": "newImplementation",
          "type": "address"
        },
        {
          "internalType": "bytes",
          "name": "data",
          "type": "bytes"
        }
      ],
      "name": "upgradeToAndCall",
      "outputs": [],
      "stateMutability": "payable",
      "type": "function"
    },
    {
      "inputs": [],
      "name": "version",
      "outputs": [
        {
          "internalType": "string",
          "name": "",
          "type": "string"
        }
      ],
      "stateMutability": "pure",
      "type": "function"
    },
    {
      "inputs": [
        {
          "internalType": "bytes",
          "name": "id",
          "type": "bytes"
        },
        {
          "internalType": "uint256",
          "name": "amount",
          "type": "uint256"
        },
        {
          "internalType": "bytes",
          "name": "signature",
          "type": "bytes"
        }
      ],
      "name": "withdraw",
      "outputs": [],
      "stateMutability": "payable",
      "type": "function"
    },
    {
      "inputs": [
        {
          "internalType": "uint256",
          "name": "amount",
          "type": "uint256"
        }
      ],
      "name": "withdrawFromMarket",
      "outputs": [],
      "stateMutability": "nonpayable",
      "type": "function"
    },
    {
      "stateMutability": "payable",
      "type": "receive"
    }
  ],
  "bytecode": "0x60a06040523060601b60805234801561001757600080fd5b5060805160601c6122ed61005260003960008181610814015281816108990152818161099001528181610a150152610b2801526122ed6000f3fe60806040526004361061018f5760003560e01c8063715018a6116100d65780638da5cb5b1161007f578063d547741f11610059578063d547741f146104be578063f2fde38b146104de578063f85ea2ab146104fe57600080fd5b80638da5cb5b1461043b57806391d1485414610463578063a217fddf146104a957600080fd5b80638129fc1c116100b05780638129fc1c146103f357806384ab6e621461040857806387ceff091461042857600080fd5b8063715018a61461039e5780637f286286146103b3578063801d2cf1146103d357600080fd5b80633659cfe61161013857806350a053cd1161011257806350a053cd1461033857806352d1902d1461035857806354fd4d501461036d57600080fd5b80633659cfe6146102c957806345118a9f146102e95780634f1ef2861461032557600080fd5b8063263198331161016957806326319833146102585780632f2ff15d1461028957806336568abe146102a957600080fd5b806301ffc9a7146101d057806320fb958e14610205578063248a9ca31461021a57600080fd5b366101cb5760405134815233907f88a5966d370b9919b20f3e2c13ff65706f196a4e32cc2c12bf57088f885258749060200160405180910390a2005b600080fd5b3480156101dc57600080fd5b506101f06101eb366004611f4c565b61051e565b60405190151581526020015b60405180910390f35b610218610213366004611fa7565b610555565b005b34801561022657600080fd5b5061024a610235366004611ef1565b60009081526097602052604090206001015490565b6040519081526020016101fc565b34801561026457600080fd5b506101f0610273366004611e8b565b61012e6020526000908152604090205460ff1681565b34801561029557600080fd5b506102186102a4366004611f21565b610753565b3480156102b557600080fd5b506102186102c4366004611f21565b61077d565b3480156102d557600080fd5b506102186102e4366004611e8b565b610809565b3480156102f557600080fd5b506101f0610304366004611f74565b805160208183018101805161012f8252928201919093012091525460ff1681565b610218610333366004611ea5565b610985565b34801561034457600080fd5b50610218610353366004611e8b565b610aee565b34801561036457600080fd5b5061024a610b1b565b34801561037957600080fd5b5060408051808201825260028152612b1960f11b602082015290516101fc9190612147565b3480156103aa57600080fd5b50610218610be0565b3480156103bf57600080fd5b506101f06103ce366004611ef1565b610bf4565b3480156103df57600080fd5b506102186103ee366004611e8b565b610c45565b3480156103ff57600080fd5b50610218610c6f565b34801561041457600080fd5b50610218610423366004611ef1565b610db2565b34801561043457600080fd5b504261024a565b34801561044757600080fd5b506033546040516001600160a01b0390911681526020016101fc565b34801561046f57600080fd5b506101f061047e366004611f21565b60009182526097602090815260408084206001600160a01b0393909316845291905290205460ff1690565b3480156104b557600080fd5b5061024a600081565b3480156104ca57600080fd5b506102186104d9366004611f21565b610fec565b3480156104ea57600080fd5b506102186104f9366004611e8b565b611011565b34801561050a57600080fd5b50610218610519366004611e8b565b61109e565b60006001600160e01b03198216637965db0b60e01b148061054f57506301ffc9a760e01b6001600160e01b03198316145b92915050565b600082116105aa5760405162461bcd60e51b815260206004820181905260248201527f506c656173652073706563696679206120706f73697469766520616d6f756e7460448201526064015b60405180910390fd5b6000333085856040516020016105c39493929190612011565b60405160208183030381529060405280519060200120905060006105e782846111b5565b905061012f856040516105fa919061205e565b9081526040519081900360200190205460ff161561065a5760405162461bcd60e51b815260206004820152601160248201527f416c72656164792077697468647261776e00000000000000000000000000000060448201526064016105a1565b6001600160a01b038116600090815261012e602052604090205460ff166106c35760405162461bcd60e51b815260206004820152601260248201527f496c6c6567616c207769746864726177616c000000000000000000000000000060448201526064016105a1565b60006106ce85610bf4565b90508061071d5760405162461bcd60e51b815260206004820152601e60248201527f496e73756666696369656e742062616c616e636520696e206d61726b6574000060448201526064016105a1565b604051339086156108fc029087906000818181858888f1935050505015801561074a573d6000803e3d6000fd5b50505050505050565b60008281526097602052604090206001015461076e81611267565b6107788383611271565b505050565b6001600160a01b03811633146107fb5760405162461bcd60e51b815260206004820152602f60248201527f416363657373436f6e74726f6c3a2063616e206f6e6c792072656e6f756e636560448201527f20726f6c657320666f722073656c66000000000000000000000000000000000060648201526084016105a1565b6108058282611313565b5050565b306001600160a01b037f00000000000000000000000000000000000000000000000000000000000000001614156108975760405162461bcd60e51b815260206004820152602c60248201527f46756e6374696f6e206d7573742062652063616c6c6564207468726f7567682060448201526b19195b1959d85d1958d85b1b60a21b60648201526084016105a1565b7f00000000000000000000000000000000000000000000000000000000000000006001600160a01b03166108f27f360894a13ba1a3210667c828492db98dca3e2076cc3735a920a3ca505d382bbc546001600160a01b031690565b6001600160a01b03161461095d5760405162461bcd60e51b815260206004820152602c60248201527f46756e6374696f6e206d7573742062652063616c6c6564207468726f7567682060448201526b6163746976652070726f787960a01b60648201526084016105a1565b61096681611396565b604080516000808252602082019092526109829183919061139e565b50565b306001600160a01b037f0000000000000000000000000000000000000000000000000000000000000000161415610a135760405162461bcd60e51b815260206004820152602c60248201527f46756e6374696f6e206d7573742062652063616c6c6564207468726f7567682060448201526b19195b1959d85d1958d85b1b60a21b60648201526084016105a1565b7f00000000000000000000000000000000000000000000000000000000000000006001600160a01b0316610a6e7f360894a13ba1a3210667c828492db98dca3e2076cc3735a920a3ca505d382bbc546001600160a01b031690565b6001600160a01b031614610ad95760405162461bcd60e51b815260206004820152602c60248201527f46756e6374696f6e206d7573742062652063616c6c6564207468726f7567682060448201526b6163746976652070726f787960a01b60648201526084016105a1565b610ae282611396565b6108058282600161139e565b610af661154d565b6001600160a01b0316600090815261012e60205260409020805460ff19166001179055565b6000306001600160a01b037f00000000000000000000000000000000000000000000000000000000000000001614610bbb5760405162461bcd60e51b815260206004820152603860248201527f555550535570677261646561626c653a206d757374206e6f742062652063616c60448201527f6c6564207468726f7567682064656c656761746563616c6c000000000000000060648201526084016105a1565b507f360894a13ba1a3210667c828492db98dca3e2076cc3735a920a3ca505d382bbc90565b610be861154d565b610bf260006115a7565b565b6000478015801590610c0557508281115b15610c135750600192915050565b61012d546001600160a01b0316318015610c3057610c3081610db2565b83610c3b838361217a565b1015949350505050565b610c4d61154d565b6001600160a01b0316600090815261012e60205260409020805460ff19169055565b600054610100900460ff1615808015610c8f5750600054600160ff909116105b80610ca95750303b158015610ca9575060005460ff166001145b610d1b5760405162461bcd60e51b815260206004820152602e60248201527f496e697469616c697a61626c653a20636f6e747261637420697320616c72656160448201527f647920696e697469616c697a656400000000000000000000000000000000000060648201526084016105a1565b6000805460ff191660011790558015610d3e576000805461ff0019166101001790555b610d46611606565b610d4e611679565b610d6a6000610d656033546001600160a01b031690565b6116e4565b8015610982576000805461ff0019169055604051600181527f7f26b83ff96e1f2b6a682f133852f6798a09c465da95921460cefb38474024989060200160405180910390a150565b6033546001600160a01b0316331480610dd15750610dd160003361047e565b610e435760405162461bcd60e51b815260206004820152603660248201527f4f776e61626c653a2063616c6c657220686173206e6f207065726d697373696f60448201527f6e2c6e6f74206d616e61676572206f72206f776e65720000000000000000000060648201526084016105a1565b61012d546001600160a01b0316610e9c5760405162461bcd60e51b815260206004820152601f60248201527f496e76616c6964206d61726b657420636f6e747261637420616464726573730060448201526064016105a1565b61012d546001600160a01b031631610f1c5760405162461bcd60e51b815260206004820152602760248201527f496e73756666696369656e742062616c616e636520696e206d61726b6574206360448201527f6f6e74726163740000000000000000000000000000000000000000000000000060648201526084016105a1565b61012d546001600160a01b03168115610f8d576040516354b4ff8560e11b8152600481018390526001600160a01b0382169063a969ff0a90602401600060405180830381600087803b158015610f7157600080fd5b505af1158015610f85573d6000803e3d6000fd5b505050505050565b61012d546040516354b4ff8560e11b81526001600160a01b0391821631600482018190529183169063a969ff0a90602401600060405180830381600087803b158015610fd857600080fd5b505af115801561074a573d6000803e3d6000fd5b60008281526097602052604090206001015461100781611267565b6107788383611313565b61101961154d565b6001600160a01b0381166110955760405162461bcd60e51b815260206004820152602660248201527f4f776e61626c653a206e6577206f776e657220697320746865207a65726f206160448201527f646472657373000000000000000000000000000000000000000000000000000060648201526084016105a1565b610982816115a7565b6033546001600160a01b03163314806110bd57506110bd60003361047e565b61112f5760405162461bcd60e51b815260206004820152603660248201527f4f776e61626c653a2063616c6c657220686173206e6f207065726d697373696f60448201527f6e2c6e6f74206d616e61676572206f72206f776e65720000000000000000000060648201526084016105a1565b6001600160a01b0381166111855760405162461bcd60e51b815260206004820152601060248201527f61646472657373206973207a65726f2e0000000000000000000000000000000060448201526064016105a1565b61012d805473ffffffffffffffffffffffffffffffffffffffff19166001600160a01b0392909216919091179055565b6000806000806111c4856116ee565b9194509250905060006111d76020611762565b876040516020016111e992919061207a565b60408051601f1981840301815282825280516020918201206000845290830180835281905260ff8516918301919091526060820186905260808201859052915060019060a0016020604051602081039080840390855afa158015611251573d6000803e3d6000fd5b5050604051601f19015198975050505050505050565b6109828133611884565b60008281526097602090815260408083206001600160a01b038516845290915290205460ff166108055760008281526097602090815260408083206001600160a01b03851684529091529020805460ff191660011790556112cf3390565b6001600160a01b0316816001600160a01b0316837f2f8788117e7eff1d82e926ec794901d17c78024a50270940304540a733656f0d60405160405180910390a45050565b60008281526097602090815260408083206001600160a01b038516845290915290205460ff16156108055760008281526097602090815260408083206001600160a01b0385168085529252808320805460ff1916905551339285917ff6391f5c32d9c69d2a47ea670b442974b53935d1edc7fd64eb21e047a839171b9190a45050565b61098261154d565b7f4910fdfa16fed3260ed0e7147f7cc6da11a60208b5b9406d12a635614ffd91435460ff16156113d15761077883611904565b826001600160a01b03166352d1902d6040518163ffffffff1660e01b815260040160206040518083038186803b15801561140a57600080fd5b505afa92505050801561143a575060408051601f3d908101601f1916820190925261143791810190611f09565b60015b6114ac5760405162461bcd60e51b815260206004820152602e60248201527f45524331393637557067726164653a206e657720696d706c656d656e7461746960448201527f6f6e206973206e6f74205555505300000000000000000000000000000000000060648201526084016105a1565b7f360894a13ba1a3210667c828492db98dca3e2076cc3735a920a3ca505d382bbc81146115415760405162461bcd60e51b815260206004820152602960248201527f45524331393637557067726164653a20756e737570706f727465642070726f7860448201527f6961626c6555554944000000000000000000000000000000000000000000000060648201526084016105a1565b506107788383836119cf565b6033546001600160a01b03163314610bf25760405162461bcd60e51b815260206004820181905260248201527f4f776e61626c653a2063616c6c6572206973206e6f7420746865206f776e657260448201526064016105a1565b603380546001600160a01b0383811673ffffffffffffffffffffffffffffffffffffffff19831681179093556040519116919082907f8be0079c531659141344cd1fd0a4f28419497f9722a3daafe3b4186f6b6457e090600090a35050565b600054610100900460ff166116715760405162461bcd60e51b815260206004820152602b60248201527f496e697469616c697a61626c653a20636f6e7472616374206973206e6f74206960448201526a6e697469616c697a696e6760a81b60648201526084016105a1565b610bf26119fa565b600054610100900460ff16610bf25760405162461bcd60e51b815260206004820152602b60248201527f496e697469616c697a61626c653a20636f6e7472616374206973206e6f74206960448201526a6e697469616c697a696e6760a81b60648201526084016105a1565b6108058282611271565b600080600083516041146117445760405162461bcd60e51b815260206004820152601860248201527f496e76616c6964207369676e6174757265206c656e677468000000000000000060448201526064016105a1565b50505060208101516040820151606090920151909260009190911a90565b6060816117865750506040805180820190915260018152600360fc1b602082015290565b8160005b81156117b0578061179a8161221f565b91506117a99050600a83612192565b915061178a565b60008167ffffffffffffffff8111156117d957634e487b7160e01b600052604160045260246000fd5b6040519080825280601f01601f191660200182016040528015611803576020820181803683370190505b5090505b841561187c576118186001836121c5565b9150611825600a8661223a565b61183090603061217a565b60f81b81838151811061185357634e487b7160e01b600052603260045260246000fd5b60200101906001600160f81b031916908160001a905350611875600a86612192565b9450611807565b949350505050565b60008281526097602090815260408083206001600160a01b038516845290915290205460ff16610805576118c2816001600160a01b03166014611a6e565b6118cd836020611a6e565b6040516020016118de9291906120c6565b60408051601f198184030181529082905262461bcd60e51b82526105a191600401612147565b6001600160a01b0381163b6119815760405162461bcd60e51b815260206004820152602d60248201527f455243313936373a206e657720696d706c656d656e746174696f6e206973206e60448201527f6f74206120636f6e74726163740000000000000000000000000000000000000060648201526084016105a1565b7f360894a13ba1a3210667c828492db98dca3e2076cc3735a920a3ca505d382bbc805473ffffffffffffffffffffffffffffffffffffffff19166001600160a01b0392909216919091179055565b6119d883611c64565b6000825111806119e55750805b15610778576119f48383611ca4565b50505050565b600054610100900460ff16611a655760405162461bcd60e51b815260206004820152602b60248201527f496e697469616c697a61626c653a20636f6e7472616374206973206e6f74206960448201526a6e697469616c697a696e6760a81b60648201526084016105a1565b610bf2336115a7565b60606000611a7d8360026121a6565b611a8890600261217a565b67ffffffffffffffff811115611aae57634e487b7160e01b600052604160045260246000fd5b6040519080825280601f01601f191660200182016040528015611ad8576020820181803683370190505b509050600360fc1b81600081518110611b0157634e487b7160e01b600052603260045260246000fd5b60200101906001600160f81b031916908160001a905350600f60fb1b81600181518110611b3e57634e487b7160e01b600052603260045260246000fd5b60200101906001600160f81b031916908160001a9053506000611b628460026121a6565b611b6d90600161217a565b90505b6001811115611c0e577f303132333435363738396162636465660000000000000000000000000000000085600f1660108110611bbc57634e487b7160e01b600052603260045260246000fd5b1a60f81b828281518110611be057634e487b7160e01b600052603260045260246000fd5b60200101906001600160f81b031916908160001a90535060049490941c93611c0781612208565b9050611b70565b508315611c5d5760405162461bcd60e51b815260206004820181905260248201527f537472696e67733a20686578206c656e67746820696e73756666696369656e7460448201526064016105a1565b9392505050565b611c6d81611904565b6040516001600160a01b038216907fbc7cd75a20ee27fd9adebab32041f755214dbc6bffa90cc0225b39da2e5c2d3b90600090a250565b60606001600160a01b0383163b611d235760405162461bcd60e51b815260206004820152602660248201527f416464726573733a2064656c65676174652063616c6c20746f206e6f6e2d636f60448201527f6e7472616374000000000000000000000000000000000000000000000000000060648201526084016105a1565b600080846001600160a01b031684604051611d3e919061205e565b600060405180830381855af49150503d8060008114611d79576040519150601f19603f3d011682016040523d82523d6000602084013e611d7e565b606091505b5091509150611da6828260405180606001604052806027815260200161229160279139611daf565b95945050505050565b60608315611dbe575081611c5d565b825115611dce5782518084602001fd5b8160405162461bcd60e51b81526004016105a19190612147565b80356001600160a01b0381168114611dff57600080fd5b919050565b600082601f830112611e14578081fd5b813567ffffffffffffffff80821115611e2f57611e2f61227a565b604051601f8301601f19908116603f01168101908282118183101715611e5757611e5761227a565b81604052838152866020858801011115611e6f578485fd5b8360208701602083013792830160200193909352509392505050565b600060208284031215611e9c578081fd5b611c5d82611de8565b60008060408385031215611eb7578081fd5b611ec083611de8565b9150602083013567ffffffffffffffff811115611edb578182fd5b611ee785828601611e04565b9150509250929050565b600060208284031215611f02578081fd5b5035919050565b600060208284031215611f1a578081fd5b5051919050565b60008060408385031215611f33578182fd5b82359150611f4360208401611de8565b90509250929050565b600060208284031215611f5d578081fd5b81356001600160e01b031981168114611c5d578182fd5b600060208284031215611f85578081fd5b813567ffffffffffffffff811115611f9b578182fd5b61187c84828501611e04565b600080600060608486031215611fbb578081fd5b833567ffffffffffffffff80821115611fd2578283fd5b611fde87838801611e04565b9450602086013593506040860135915080821115611ffa578283fd5b5061200786828701611e04565b9150509250925092565b60006bffffffffffffffffffffffff19808760601b168352808660601b1660148401525083516120488160288501602088016121dc565b6028920191820192909252604801949350505050565b600082516120708184602087016121dc565b9190910192915050565b7f19457468657265756d205369676e6564204d6573736167653a0a0000000000008152600083516120b281601a8501602088016121dc565b601a920191820192909252603a0192915050565b7f416363657373436f6e74726f6c3a206163636f756e74200000000000000000008152600083516120fe8160178501602088016121dc565b7f206973206d697373696e6720726f6c6520000000000000000000000000000000601791840191820152835161213b8160288401602088016121dc565b01602801949350505050565b60208152600082518060208401526121668160408501602087016121dc565b601f01601f19169190910160400192915050565b6000821982111561218d5761218d61224e565b500190565b6000826121a1576121a1612264565b500490565b60008160001904831182151516156121c0576121c061224e565b500290565b6000828210156121d7576121d761224e565b500390565b60005b838110156121f75781810151838201526020016121df565b838111156119f45750506000910152565b6000816122175761221761224e565b506000190190565b60006000198214156122335761223361224e565b5060010190565b60008261224957612249612264565b500690565b634e487b7160e01b600052601160045260246000fd5b634e487b7160e01b600052601260045260246000fd5b634e487b7160e01b600052604160045260246000fdfe416464726573733a206c6f772d6c6576656c2064656c65676174652063616c6c206661696c6564a264697066735822122078757d0f63febfdd1f6f988e18b09879c3702ed16bd844c003077250de84e66264736f6c63430008040033",
  "linkReferences": {},
  "deployedLinkReferences": {}
}